S0160000526F6F6D626156657273696F6E332E7372656395
S113000011C1000040C100003EC100003CC100001D
S11300103AC100000C94CA086EC5000034C1000047
S113002032C1000030C100002EC100002CC100000C
S11300302AC1000028C1000026C1000024C100001C
S113004022C100000C94EE0B1EC100001CC1000074
S11300501AC1000018C1000016C100000C949F10C2
S113006012C100000C9409100EC100000CC1000064
S11300700AC1000008C1000006C1000004C100005C
S113008063C5000000C10000FEC00000FCC0000009
S11300900C947910F8C00000F6C00000F4C0000011
S11300A0F2C00000F0C00000EEC00000ECC0000090
S11300B0EAC00000E8C00000E6C00000E4C00000A0
S11300C0E2C00000E0C00000DEC000000C94871312
S11300D00C94BD13D8C00000D6C00000D4C00000EA
S11300E0D2C00000A10F630E9A0EAB0ECC0EA10F6E
S11300F0ED0E010F230FAB11AE119D11A111A7112C
S1130100E511B211B611BC11C011C411CA11CE113E
S1130110D211E511D811DC11E01100000A0B02091B
S11301200C0D0E080703040100000000000000008D
S113013000000000000000000000000000000000BB
S11301400000000000001211100000000000000078
S1130150000000000000000000000000000000009B
S113016001021020200808102040102040800201C5
S113017002010804020101020408102040808040AA
S113018020100804020180040201804020100804A9
S11301900201080402010102040810204080010247
S11301A0040810204080050505050705080808080F
S11301B0020202020A0A08080404040401010101FB
S11301C001010101030303030303030304070707F6
S11301D00C0C0C0C0C0C0C0C02020202060606069B
S11301E0060606060B0B0B0B0B0B0B0B0000220079
S11301F0250028002B002E003100340002010000ED
S1130200050108010B0100002100240027002A0039
S11302102D003000330001010000040107010A0130
S11302203105E61311241FBECFEFD1E2DEBFCDBFEF
S113023000E00CBF12E0A0E0B2E0E2EEFBE200E07E
S11302400BBF02C007900D92A439B107D9F72EE075
S1130250A4E9B2E001C01D92AD32B207E1F712E0A9
S1130260C4E2D2E000E006C022970109FE010BBF00
S11302700E94A214C032D10780E00807A9F70E94A7
S11302800E0E0C94EF15BCCE6115710581F0DB01E7
S11302900D900020E9F7AD0141505109461B570B61
S11302A0DC01ED91FC910280F381E02D199480E052
S11302B090E00895CF92DF92EF92FF920F931F93F5
S11302C0CF93DF93CDB7DEB7AE970FB6F894DEBF0A
S11302D00FBECDBF6C0119821A821B821C82FE01E3
S11302E0359680E1DF011D928A95E9F78CE89DE05F
S11302F0909395028093940226E040E855E260E0F2
S113030070E00E9427136DE372E080919402909153
S11303109502BADF6CE474E080E090E00E940C1176
S11303208E010F5F1F4F7801809194029091950286
S1130330DC01ED91FC910480F581E02D1995892B68
S113034079F08091940290919502DC01ED91FC91F9
S11303500680F781E02D1995F70181937F01E4CFA1
S113036087E0E1E5F2E0DE01989601900D928A952E
S1130370E1F7BE01685D7F4FC8010E94DF15892B3C
S113038011F00E940E0DF80101900020E9F7AF0171
S113039041505109401B510B60E070E0C8010E94BC
S11303A0CD15B6017C5F80919402909195026CDF2B
S11303B06CE474E080E090E00E940C11780180917C
S11303C0940290919502DC01ED91FC910480F581F9
S11303D0E02D1995892B79F08091940290919502E2
S11303E0DC01ED91FC910680F781E02D1995F70170
S11303F081937F01E4CF8AE0E8E5F2E0DE015596DF
S113040001900D928A95E1F7BE016B5E7F4FC801A2
S11304100E94DF15892B11F00E940E0DF801019046
S11304200020E9F7AF0141505109401B510B60E036
S113043070E0C8010E94CD1566E472E080919402D8
S11304409091950221DF6CE474E080E090E00E94DA
S11304500C1178018091940290919502DC01ED9148
S1130460FC910480F581E02D1995892B79F0809118
S1130470940290919502DC01ED91FC910680F78144
S1130480E02D1995F70181937F01E4CF89E0E2E63D
S1130490F2E0DE015F9601900D928A95E1F7BE01CC
S11304A0615E7F4FC8010E94DF15892B81F0AE96F3
S11304B00FB6F894DEBF0FBECDBFDF91CF911F9171
S11304C00F91FF90EF90DF90CF900C940E0DAE96AD
S11304D00FB6F894DEBF0FBECDBFDF91CF911F9151
S11304E00F91FF90EF90DF90CF9008950F931F939B
S11304F0CF93DF938B01EC01DC5F6BE672E0CE01FE
S11305000E94E815B801CE01DF91CF911F910F91A0
S11305100C94D415EBDF82E090E090930902809371
S1130520080283E090E09093070280930602089506
S1130530CF93DF931F921F92CDB7DEB7BE016F5FDB
S11305407F4F8091D0029091D1020E94EA0D89815F
S113055080939B02F3CFD7D68CE092E05BD51092C8
S1130560970210929602249A259A269A2C982D98EE
S11305702E983D9A3C9A3B9A4598449843980895FE
S113058085B190E1892785B960E070E08091D2025D
S11305909091D3020C94FC0DFF920F931F93CF9371
S11305A0DF9381D3082F10E0C1E1D2E080E4F82E7C
S11305B0899190E008171907A1F4E0910B02F0E08B
S11305C0EF5EFD4F808190E00817190751F085B167
S11305D08F2585B9B8018091D0029091D1020E94F3
S11305E0FC0D82E0C531D80719F7DF91CF911F9137
S11305F00F91FF9008950F931F93CF93DF93009172
S1130600CC021091CD02C091CA02D091CB0283E8F2
S11306100E944510B801CE01ABD68091C9028F5F0C
S11306208093C902853029F48091980210D31092E6
S1130630C902DF91CF911F910F910895C1E0D8ECC9
S113064012E38091940290919502DC01ED91FC916A
S11306500480F581E02D1995892B99F380919402FA
S113066090919502DC01ED91FC910680F781E02DDB
S1130670199520910A0299272223D9F010920A028F
S11306808B549109189F9001199F300D11243093B8
S1130690CB022093CA0261E08DE00E941F12BFEFDB
S11306A021EE84E0B15020408040E1F700C000001A
S11306B00DC0C0930A028B549109D89F9001D99F11
S11306C0300D11243093CD022093CC0260E08DE0F4
S11306D00E941F129FEFA1EEB4E09150A040B040E1
S11306E0E1F700C0000087DFACCFCF93DF93CDB735
S11306F0DEB7A2970FB6F894DEBF0FBECDBF1A8245
S113070081E089838091990249E081112FC063E5DA
S1130710CE0101964AD642E16AE5CE01019645D65C
S113072049E069E5CE01019640D649E069E5CE018C
S113073001963BD649E068E5CE01019636D649E0FC
S113074066E5CE01019631D649E064E5CE01019615
S11307502CD649E068E5CE01019627D649E068E544
S1130760CE01019622D649E064E54CC069E5CE018C
S113077001961BD649E061E5CE01019616D649E003
S113078063E5CE01019611D649E069E5CE010196F3
S11307900CD649E061E5CE01019607D649E063E550
S11307A0CE01019602D649E069E5CE010196FDD558
S11307B049E061E5CE010196F8D549E063E5CE0153
S11307C00196F3D549E064E5CE010196EED549E002
S11307D068E5CE010196E9D549E063E5CE010196CD
S11307E0E4D549E064E5CE010196DFD549E063E54F
S11307F0CE010196DAD549E06BE5CE010196D5D557
S113080049E068E5CE010196D0D5CE010196E4D544
S1130810A2960FB6F894DEBF0FBECDBFDF91CF9185
S11308200895CF932091990220939C0230919A02CB
S113083030939D02FC01C385C09399028485809303
S11308409A02C21729F04598449A109297022BC035
S1130850CC2319F0C130A9F026C0809197028111F0
S113086006C043DF81E0E5D581E080939702459897
S1130870449A80919A028823A9F08130A1F4439884
S113088012C080919602811105C02FDF81E0D1D57D
S1130890C0939602109297024498459A80919A02C6
S11308A0811101C0439ACF91089585B190E28927BF
S11308B085B91092A90220910B02ECEAF2E085E0DE
S11308C0289F900111242B5E3D4F80E090E0D901D8
S11308D0A80FB91F4C914193019685309105B9F742
S11308E0809198028093B602809199028093B70216
S11308F080919A028093B80280919B0291E08111C9
S113090001C090E09093B9028093BA0210929B02C6
S113091061E089EA92E0B8C3CF93DF93CDB7DEB745
S1130920A2970FB6F894DEBF0FBECDBFBE016F5DB8
S11309307F4F8091D2029091D3020E94EA0DCE01A2
S11309400196F6D3182F8DEF810F823040F4898100
S1130950811103C0CE01049664DF133081F3A5DF57
S1130960E5CFEAE0F1E0808184608083EBE0F1E0B0
S113097080818B7F80832FEF89E698E1215080402E
S11309809040E1F700C000008081846080832FEFF5
S113099089E698E1215080409040E1F700C00000D2
S11309A00895FC01A0910B02B0E0AF5EBD4F8C91A5
S11309B08083118212821382148215821782168216
S11309C01186108613861286158614861786168657
S11309D0108A08950E94311161E08DE00E94E611B1
S11309E08091CE029091CF0265DCBBDF88E992E072
S11309F0D8DF1DD247D060910B0285E0689FB0011B
S1130A0011246B5E7D4F41E080E090D263E080E092
S1130A1015D30E94DC0D9093D3028093D2020E94DE
S1130A20DC0D9093D1028093D00260E070E08BEAF9
S1130A3092E00E94D60D60E070E08EE193E00E94A7
S1130A40D90D60E070E08CE894E00E94D90D60E07C
S1130A5070E088E992E00E94D90D18D680E090E019
S1130A600895CF93DF9380E095E00E942914EC0170
S1130A7063E772E04FDDD093CF02C093CE02DF91E3
S1130A80CF910895EAE0F1E0808188628083A0E25A
S1130A90B1E01C92E1E2F1E010828C9183608C93CE
S1130AA08081886180838C91877F8C938081816031
S1130AB0808385EA91E0909329018093280182ED57
S1130AC090E090932D0180932C0110929000E1E925
S1130AD0F0E01082808181608083E1E7F0E0808132
S1130AE08D7F80836D98EAE6F0E080818C6080835E
S1130AF0ED9AE59A08951F920F920FB60F92112462
S1130B008F939F938091D802811117C081E08093C5
S1130B10D8021092D6021092D502C19A8091940004
S1130B20909195008052914D9093990080939800F4
S1130B30809171008260809371009F918F910F90DA
S1130B400FBE0F901F9018951F920F920FB60F9221
S1130B5011240BB60F922F933F934F935F936F9390
S1130B607F938F939F93AF93BF93EF93FF93809162
S1130B70D802882391F165990EC03091D602209154
S1130B80D50281E090E0032E01C0880F0A94EAF7B1
S1130B90822B8093D5028091D6028F5F8093D602F8
S1130BA08091980090919900805C904E9093990068
S1130BB0809398008091D602883088F01092D802F1
S1130BC0809171008D7F80937100C19AE59A809124
S1130BD0D5028093D402E0DC02C08091D702FF9159
S1130BE0EF91BF91AF919F918F917F916F915F91A1
S1130BF04F913F912F910F900BBE0F900FBE0F900E
S1130C001F901895E59AED9A0895ED98E1E7F0E0C4
S1130C1080818D7F8083C19A1092D8020895E0E28A
S1130C20F1E08081886080838FEC97E00197F1F791
S1130C3000C000000895E0E2F1E08081877F8083B6
S1130C408FEC97E00197F1F700C000000895FF9240
S1130C500F931F93CF93DF93082FFFB6F894D5DF3C
S1130C6090912001986090932001D9DFE4DFC0E0E7
S1130C70D0E010E0C8010C2E02C0959587950A9427
S1130C80E2F780FF02C0CBDF01C0D5DF2196C83078
S1130C90D10581F7D0DFB6DFFFBEDF91CF911F9181
S1130CA00F91FF9008958091D4020895CF93DF931C
S1130CB0C2E0D1E088818F7B88838FEF1ED3988137
S1130CC090649883DF91CF910895CF92DF92FF9241
S1130CD00F931F93CF93DF931F92CDB7DEB78B0192
S1130CE092E0C92EDD24D394F60190819F7B9083FA
S1130CF08F718062498301D3F82E4981642FC80122
S1130D00EFD2F6019081906490838F2D0F90DF9144
S1130D10CF911F910F91FF90DF90CF900895EF92A4
S1130D20FF920F931F93CF93DF931F92CDB7DEB73C
S1130D307B018A01909102019F7B90930201298398
S1130D40DCD22981222359F00115110521F4622FE7
S1130D50C701C6D204C0422FB801C701B0D28091E6
S1130D6002018064809302010F90DF91CF911F9163
S1130D700F91FF90EF90089580913602882329F017
S1130D8045E06CE272E08AE0A0CF0895EF92FF9212
S1130D901F93CF93DF931F921F92CDB7DEB79FEFC0
S1130DA0FB01908322E0E22EFF24F394F70190816B
S1130DB09F7B90838F7169837A839FD2182F41E040
S1130DC069817A8180E090E07AD2F7019081906421
S1130DD09083812F0F900F90DF91CF911F91FF90FF
S1130DE0EF900895CF93DF931F92CDB7DEB7BE0186
S1130DF06F5F7F4F80E0CADF898180FD14C081600E
S1130E00898341E0BE016F5F7F4F80E05EDF83E056
S1130E1091E00197F1F700C0000083E091E00197B1
S1130E20F1F700C000000F90DF91CF9108951F9358
S1130E30CF93DF931F92CDB7DEB71092D902E1E0D2
S1130E40F1E0808188618083A2E0B1E08C918F7EA3
S1130E508C938C91877F8C938C918F7D8C938081E4
S1130E60806280838081806480836C98EAE6F0E00D
S1130E7080818260808380818E7F8083EC9AE49A73
S1130E808FED9BEA0197F1F700C000000BD283E0DD
S1130E90898341E0BE016F5F7F4F17DF85E189835E
S1130EA041E0BE016F5F7F4F84E00FDF10E71983DD
S1130EB041E0BE016F5F7F4F85E007DF89E08983F2
S1130EC041E0BE016F5F7F4F86E0FFDE8FE08983E4
S1130ED041E0BE016F5F7F4F80E0F7DE198341E0A0
S1130EE0BE016F5F7F4F87E0F0DE20E040E050E01E
S1130EF060E070E081EE13DF20E040E050E060E06D
S1130F0070E082EE0CDF8FE39FE10197F1F700C000
S1130F100000E2E0F1E08081806280838081806172
S1130F2080830F90DF91CF911F910895DF92EF920C
S1130F30FF920F931F93CF93DF931F921F92CDB70E
S1130F40DEB7982FFB01D42E863008F059C08111EA
S1130F5010C0808180932C02818180932D02828134
S1130F6080932E02838180932F02848180933002A8
S1130F7004C0813011F041E001C045E0BF018AE0C6
S1130F80890F9A83A2DEBE016F5F7F4F81E0FEDE90
S1130F909A81E92EF12C01E010E001C0000F9A952E
S1130FA0EAF78981802B898341E0BE016F5F7F4F1F
S1130FB081E08BDE9A81DD2011F080E201C080E0C7
S1130FC0898341E0BE016F5F7F4F81E1890F7DDE40
S1130FD08981F701EA5CFD4F8083BE016F5F7F4F1B
S1130FE082E0D4DE8981DD2011F0082B02C0009557
S1130FF00823098341E0BE016F5F7F4F82E065DE15
S11310000F900F90DF91CF911F910F91FF90EF9070
S1131010DF900895FC018081809331028181809367
S113102032028281809333028381809334028481EB
S11310308093350245E0BF0180E147CE0F931F93B3
S1131040CF93DF931F92CDB7DEB7182F062F6430EE
S1131050A8F4823098F4BE016F5F7F4F86E096DE7D
S1131060602F660F99819660692311116860698306
S113107041E0BE016F5F7F4F86E027DE0F90DF9176
S1131080CF911F910F910895FF920F931F93CF93C8
S1131090DF931F92CDB7DEB78C01F62E81E08093EB
S11310A0D902809102018F7D80930201BE016F5F9E
S11310B07F4F80E06BDE898180FF14C08E7F89833F
S11310C041E0BE016F5F7F4F80E0FFDD83E091E090
S11310D00197F1F700C0000083E091E00197F1F778
S11310E000C0000045E061E372E08AE0EEDD80913B
S11310F0020188608093020120E240E050E0B801E0
S113110080EA0DDE80910201806280930201F11079
S113111007C08091D9028111FCCF8091290201C0BE
S113112081E00F90DF91CF911F910F91FF9008956F
S1131130CF93DF93EC011092D902809102018F7D4D
S113114080930201B3DD8E70282F30E0359527950A
S1131150F901EA5CFD4F8081813268F4273069F03F
S11311602081AE01BE0181E6DADDA0DD8E708E3015
S113117031F083E005C080E003C082E001C084E078
S1131180909102019062909302011092D902DF9132
S1131190CF9108951F920F920FB60F9211240BB6A0
S11311A00F922F933F934F935F936F937F938F93FC
S11311B09F93AF93BF93EF93FF93CF93DF931F92CC
S11311C0CDB7DEB7809102018F7E809302018091BA
S11311D002018F7D8093020169DD898386FF03C04C
S11311E08E708695CDD9898185FF1BC01092D90256
S11311F0C3DDF8DD80912A0290912B02880F991F9C
S113120090932B0280932A0280912A0290912B02C0
S1131210816090932B0280932A0281E080932902BB
S113122019C084FF17C020E040E050E060E070E0A7
S113123081EE75DD1092D9029FDDD4DD80912A0202
S113124090912B02880F991F90932B0280932A026E
S11312501092290280E7898341E0BE016F5F7F4FCE
S113126087E033DD809102018061809302018091E7
S113127002018062809302010F90DF91CF91FF9170
S1131280EF91BF91AF919F918F917F916F915F91FA
S11312904F913F912F910F900BBE0F900FBE0F9067
S11312A01F90189584B1807F84B984B1876084B914
S11312B0289A80E58CBD81E08DBD28980895262F5D
S11312C0FB013E2F321B341750F4DC013D91CD015C
S11312D03EBD0DB407FEFDCF3EB53193F2CF089568
S11312E0282FFC018E2F821B861730F481918EBD2E
S11312F00DB407FEFDCFF6CF08958EBD0DB407FEE5
S1131300FDCF8EB50895519A599883E0C5D680E8EB
S1131310BCD62FEF89EF90E0215080409040E1F758
S113132000C0000081E8B1D687E0AFD62FEF81EE90
S113133094E0215080409040E1F700C0000080E03C
S1131340ABD680E8A2D62FEF89EF90E02150804001
S11313509040E1F700C0000083E897D62FEF89EFB3
S113136090E0215080409040E1F700C000000895D3
S11313701F93CF93DF9300D0CDB7DEB7182F89E842
S11313806B837A83998381D69981892F7ED6812F25
S11313907CD67A81872F79D66B81862F0F900F9018
S11313A00F90DF91CF911F9170C6FC015181503194
S11313B090F4252F30E0F9013196EE0FFF1FE80F6E
S11313C0F91F6083F901EE0FFF1FE80FF91F438334
S11313D05F5FFC0151830895FF920F931F93CF9396
S11313E0DF93EC018CE851D688814FD689814DD6A4
S11313F0F12C0F2D112707FD1095898190E0081716
S113140019078CF4F8013196EE0FFF1FEC0FFD1F46
S113141080813BD6F801EE0FFF1FEC0FFD1F838187
S113142034D6F394E6CFDF91CF911F910F91FF90C3
S11314300895CF93C82F8DE828D68C2FCF9125C639
S1131440FFCFFF93FCB7FF93FFB7F894FF93EF939D
S1131450DF93CF93BF93AF939F938F937F936F93B8
S11314605F934F933F932F931F930F93FF92EF92AA
S1131470DF92CF92BF92AF929F928F927F926F92A0
S11314805F924F923F922F921F920F928DB79EB709
S11314909093F40C8093F30CE091F90CF091FA0C16
S11314A0F395808191819EBF8DBF0F901F902F90E7
S11314B03F904F905F906F907F908F909F90AF90F0
S11314C0BF90CF90DF90EF90FF900F911F912F91DD
S11314D03F914F915F916F917F918F919F91AF91C8
S11314E0BF91CF91DF91EF91FF91FFBFFF91FCBFBF
S11314F0FF910895FF93FCB7FF93FFB7F894FF9310
S1131500EF93DF93CF93BF93AF939F938F937F9387
S11315106F935F934F933F932F931F930F93FF9278
S1131520EF92DF92CF92BF92AF929F928F927F926F
S11315306F925F924F923F922F921F920F92E0917F
S1131540F90CF091FA0C8DB79EB7F39591838083D3
S11315508091F30C9091F40C9EBF8DBF0F901F905F
S11315602F903F904F905F906F907F908F909F90BF
S1131570AF90BF90CF90DF90EF90FF900F911F91AD
S11315802F913F914F915F916F917F918F919F9197
S1131590AF91BF91CF91DF91EF91FF91FFBFFF9189
S11315A0FCBFFF9108950F931F93CF93DF93DC014A
S11315B0FB01CD91DC911197209721F411967C9336
S11315C06E9331C04681578180E090E02091DC0227
S11315D03091DD020091DC021091DD02BA01621B40
S11315E0730B2E813F81201B310B6217730768F444
S11315F0009731F0DC011996FC93EE93189702C022
S1131600ED93FC93D187C08714C0288539852115B3
S1131610310519F0CE01E901D9CF1296CD91DC91B3
S11316201397F987E8871396FC93EE931297118624
S11316301086DF91CF911F910F910895FC01808155
S11316409181892B19F47183608306C0A281B381CF
S1131650A65FBE4F6D937C93738362830895FC01F0
S113166080819181009789F02281338182179307C9
S113167029F413821282118210820895DC01A65F7C
S1131680BE4F2D913C91318320830895CF93CFB7E2
S1131690F89483E080935E032DDFCFBFCF9108954C
S11316A080913F0390914003892B69F080915D0301
S11316B0813061F480913B0390913C03892B31F498
S11316C082E090E0089581E090E0089580915D03C8
S11316D08F3F29F08FE393E0C2DFBC0102C067EEC5
S11316E07BE0FB01E752FF4F108280E87E96808307
S11316F0339610828091590390915A0331969083C6
S11317008091590390915A033196808331961082C7
S113171086E49BE031969083319680833196CB01A9
S113172089529F4F9183808382E035968083809194
S11317305B0390915C0331969183808380915D0378
S11317403497808380915D03813041F0823009F4C5
S11317503FC0811140C08FE293E03CC0E0913B0365
S1131760F0913C033097B1F080913D0390913E039A
S1131770E817F90749F410923E0310923D031092C2
S11317803C0310923B0306C08085918590933C03F3
S113179080933B03809155039091560397838683EE
S11317A080915103909152039383828380915303D8
S11317B0909154039583848371836083DB01AD5FCF
S11317C0BE4FED93FC93BF0183E393E0ECDE03C0D3
S11317D087E393E033DF80E090E00895FF93FCB764
S11317E0FF93FFB7F894F068FF93EF93DF93CF93E1
S11317F0BF93AF939F938F937F936F935F934F9315
S11318003F932F931F930F93FF92EF92DF92CF9208
S1131810BF92AF929F928F927F926F925F924F92FC
S11318203F922F921F920F92E091F90CF091FA0CD3
S11318308DB79EB7F395918380838091F30C90913B
S1131840F40C9EBF8DBF81E080935E03E8E8F0E076
S113185080819181805F984D918380838091F30C86
S11318609091F40C9EBF8DBF0F901F902F903F90CE
S11318704F905F906F907F908F909F90AF90BF90AC
S1131880CF90DF90EF90FF900F911F912F913F9198
S11318904F915F916F917F918F919F91AF91BF9184
S11318A0CF91DF91EF91FF91FFBFFF91FCBFFF91BB
S11318B00895CF93DF9380918100826080938100AB
S11318C0ECE8F4E01082CF01079696838583DF016C
S11318D012971D921C92E45FFE4F2CE0EC3EF2073F
S11318E089F71092F20C1092F10C1092E60B109200
S11318F0E50B1092EC0C1092EB0C1092EA0CEFE555
S1131900F3E01782168215821482138212821182E6
S11319101082CF010A969187808723E08D37920742
S113192011F0FC01EECF10927E0310927D03109211
S113193086031092850310928403109283031092FD
S11319408203109281031092800310927F03C7E8F0
S1131950D3E0D0934003C0933F032BED3AE03093A0
S11319604203209341032FE533E030933C0320935B
S11319703B0390933E0380933D03109234031092F3
S113198033031092360310923503109238031092E9
S1131990370310923A0310923903109230031092D5
S11319A02F03109232031092310380E29AE0909355
S11319B05A03809359038FEF80935D0310925C0365
S11319C010925B036DDE8AEE94E090935A03809349
S11319D0590310925D0310925C0310925B0360DE66
S11319E0D093FA0CC093F90C81E080938C048FE2BD
S11319F093E035DE80916F00826080936F00809168
S1131A00840090918500805F984D90938900809325
S1131A10880082E086BBDF91CF910895F89480E836
S1131A2084B980913C02811104C080913C028F5F93
S1131A3003C080913C02815030E835B994E62FE729
S1131A4048E351E0215040405040E1F700C000001D
S1131A509150A9F715B898E26FE728E341E0615087
S1131A6020404040E1F700C000009150A9F79817CA
S1131A70E1F035B92AE05FE768E341E051506040A6
S1131A804040E1F700C000002150A9F715B82AE052
S1131A905FE768E341E0515060404040E1F700C037
S1131AA000002150A9F79F5FE2CF94E15FE768E36C
S1131AB021E0515060402040E1F700C00000915007
S1131AC0A9F7BBCFE0913303F09134033097E9F0E9
S1131AD0809135039091360326813781E817F90701
S1131AE061F00084F185E02D8681978128173907FC
S1131AF021F486E080933C0291DF4091DC02509116
S1131B00DD0281E02417350709F080E090E00895B4
S1131B1080914D0390914E03019769F180912F03B9
S1131B2090913003892B49F0E091F90CF091FA0C73
S1131B30EE5FFE4F808181111BC0C4DF892B49F009
S1131B40E091F90CF091FA0CEE5FFE4F8081823047
S1131B507CF48091370390913803892B61F0E091F4
S1131B60F90CF091FA0CEE5FFE4F808183301CF08B
S1131B7081E090E0089580E090E00895CF93CFB79E
S1131B80F89490935A038093590370935C03609381
S1131B905B0340935D0382E080935E03ABDC809142
S1131BA04B0390914C03CFBFCF91089540E0E6CF13
S1131BB0089542E0E3CF0895CF93CFB7F89486E039
S1131BC080935E0397DC8091490390914A03CFBFD1
S1131BD0CF910895CF93CFB7F8949093480380930F
S1131BE04703709346036093450387E080935E0345
S1131BF081DCCFBFCF910895CF93CFB7F894909362
S1131C00480380934703709344036093430388E03D
S1131C1080935E036FDCCFBFCF9108954ADEEE243C
S1131C20E394C7EEDBE082E0F82E93E0D92E8091B6
S1131C30F90C9091FA0C009711F488E06CC0FC0147
S1131C40EB5FFE4F2081213009F07EC1875E9B400F
S1131C5051F580914D0390914E03892B09F474C181
S1131C6022C030DF892B09F490C1E0913303F09155
S1131C703403309709F072C1F093F80CE093F70C39
S1131C80808191819093FA0C8093F90C84819581E1
S1131C909093F60C8093F50CE091F90CF091FA0C0A
S1131CA0EB5FFE4FE08210924E0310924D03C9DBAE
S1131CB080915E0390E08930910508F03AC1FC01FF
S1131CC0EE58FF4F39C68091DC029091DD020196F7
S1131CD09093DD028093DC028091840090918500D2
S1131CE09093DB028093DA026091F90C7091FA0C04
S1131CF0FB01EE5FFE4F8081813081F48091F50C11
S1131D009091F60C01979093F60C8093F50C892B27
S1131D1009F017C185E080933C0280DE823009F02F
S1131D2010C1FB01EB5FFE4F9081913009F009C1B6
S1131D30808350C0B5DC90934C0380934B03809117
S1131D404B0390914C03892B09F0ECC0E1DE892B05
S1131D5009F036C1E7C00091F90C1091FA0C3BE090
S1131D60073E130709F4EDC0F801EB5FFE4F108244
S1131D7033978081813061F431966081718161157E
S1131D80710531F0FB01118210828BE393E00BDCCF
S1131D90B8018FE393E0A1C06091F90C7091FA0C43
S1131DA0FB01EB5FFE4FF08233978081813021F09D
S1131DB0823009F08EC00EC0E091F70CF091F80C5F
S1131DC08681978122813381820F931F9783868333
S1131DD0BF0189C087E393E080C02091DE022A30EE
S1131DE070F4F8E02F9FC001112481529D4F90930D
S1131DF04A03809349032F5F2093DE02A2C089E047
S1131E008ACF8091470390914803009719F100917C
S1131E10F90C1091FA0CF801EE5FFE4F208121308D
S1131E2011F48BE078CFF801E85FFE4F2091450371
S1131E303091460331832083B80100DCF801EB5F65
S1131E40FE4FD0827EC000914703109148030115D4
S1131E50110501F58AE05FCFC80101DCBC01809166
S1131E60430390914403FB01E85FFE4F0190F0812E
S1131E70E02D91838083FB01EB5FFE4FF08233976B
S1131E808081813069F0823069F081110EC08FE267
S1131E9093E0D4DBF80180819181892BE9F607C0B6
S1131EA08CE039CF87E393E0F4CF8DE034CF30DE9C
S1131EB0892B09F446C06091F90C7091FA0CFB016E
S1131EC0EB5FFE4FF08233978081813041F08230A6
S1131ED071F0811136C08FE293E0B0DB32C06091C3
S1131EE0F70C7091F80C83E393E05DDB2AC08091DA
S1131EF0370390913803FB01E65FFE4F009759F4D6
S1131F0070933A03609339037093380360933703F3
S1131F101182108216C0918380837093380360937A
S1131F2037030FC080914B0390914C03019709F044
S1131F303FC082E0F0CE31832083909338038093B6
S1131F40370310925E0373CE80912F039091300378
S1131F50892B09F486CE8FE293E01FC0809135036C
S1131F6090913603E817F90749F41092360310925A
S1131F70350310923403109233037ECE808591850D
S1131F80909334038093330377CE809137039091F9
S1131F903803892B41F087E393E061DB9093FA0CDB
S1131FA08093F90C79CED093FA0CC093F90C74CECB
S1131FB080914B0390914C03029719F683E0ABCECA
S1131FC08091F90C9091FA0CFC01EB5FFE4FF082CA
S1131FD0339720812230A1F42091370330913803C4
S1131FE0FC01E65FFE4F2115310509F0A4CF909363
S1131FF03A0380933903909338038093370388CF4F
S1132000213009F09ECFFC01ED5FFE4F60817181AC
S11320106ACF1F920F920FB60F9211240BB60F9234
S11320205F936F937F938F939F93AF93BF93EF933C
S1132030FF938091C00087FFFCCFE091600DF09189
S1132040610D8091C600E450F34F80838091600D50
S11320509091610D019664E670E039D49093610D1E
S11320608093600D81E08093FB0CFF91EF91BF9111
S1132070AF919F918F917F916F915F910F900BBE64
S11320800F900FBE0F901F9018959091C80095FF68
S1132090FCCF8093CE0008952FB7F89490916500FB
S11320A09E7F90936500813059F038F0823059F06A
S11320B0833049F488E090E008C083E390E005C0F1
S11320C089E190E002C080E190E09093CD0080939C
S11320D0CC0080EC8093C80088E98093C9008EE02E
S11320E08093CA008091C8008D7F8093C8002FBF61
S11320F008951F920F920FB60F9211240BB60F92F0
S11321008F939F93EF93FF93E091620DF0E08091A2
S1132110CE00ED59F24F80838091620D90E00196DC
S11321208F7199278093620DFF91EF919F918F9109
S11321300F900BBE0F900FBE0F901F9018951F921B
S11321400F920FB60F9211242F933F938F939F9367
S1132150AF93BF938091840D9091850DA091860DCE
S1132160B091870D3091830D23E0230F2D3720F498
S11321700196A11DB11D05C026E8230F0296A11DDD
S1132180B11D2093830D8093840D9093850DA093AE
S1132190860DB093870D8091880D9091890DA09143
S11321A08A0DB0918B0D0196A11DB11D8093880DF0
S11321B09093890DA0938A0DB0938B0DBF91AF912D
S11321C09F918F913F912F910F900FBE0F901F9071
S11321D018953FB7F8948091880D9091890DA0913E
S11321E08A0DB0918B0D26B5A89B05C02F3F19F021
S11321F00196A11DB11D3FBF6627782F892F9A2F05
S1132200620F711D811D911D42E0660F771F881FAB
S1132210991F4A95D1F70895CF92DF92EF92FF92DA
S1132220CF93DF936B017C01D4DFEB01C114D104A4
S1132230E104F10479F036D3CCDF6C1B7D0B683EEE
S11322407340A0F381E0C81AD108E108F108C8512D
S1132250DC4FECCFDF91CF91FF90EF90DF90CF90E8
S11322600895789484B5826084BD84B5816084BD0A
S113227085B5826085BD85B5816085BDEEE6F0E0FB
S1132280808181608083E1E8F0E010828081826057
S11322908083808181608083E0E8F0E080818160D8
S11322A08083E1EBF0E0808184608083E0EBF0E008
S11322B0808181608083E1E9F0E0808182608083B5
S11322C0808181608083E0E9F0E0808181608083A7
S11322D0E1EAF0E080818260808380818160808394
S11322E0E0EAF0E0808181608083E1E2F1E08081D6
S11322F082608083808181608083E0E2F1E080817C
S113230081608083EAE7F0E080818460808380815B
S11323108260808380818160808380818068808303
S11323201092C100089590E0FC013197E231F1056B
S113233008F04BC0E558FF4FFFC2809180008F77B3
S113234003C0809180008F7D8093800008958091E8
S11323508000877FF9CF84B58F7702C084B58F7DE5
S113236084BD08958091B0008F7703C08091B00040
S11323708F7D8093B0000895809190008F7707C07F
S1132380809190008F7D03C080919000877F80931F
S1132390900008958091A0008F7707C08091A000DD
S11323A08F7D03C08091A000877F8093A000089553
S11323B0809120018F7707C0809120018F7D03C019
S11323C080912001877F809320010895CF93DF932C
S11323D090E0FC01E05AFE4F2491FC01EA55FE4FC7
S11323E08491882349F190E0880F991FFC01EA5FEA
S11323F0FD4FA591B49184519E4FFC01C591D49198
S11324009FB7611108C0F8948C91209582238C9316
S1132410888182230AC0623051F4F8948C91322F5F
S1132420309583238C938881822B888304C0F8940D
S11324308C91822B8C939FBFDF91CF9108950F9342
S11324401F93CF93DF931F92CDB7DEB7282F30E0D1
S1132450F901E65EFE4F8491F901E05AFE4F1491B2
S1132460F901EA55FE4F04910023C1F0882319F0C5
S1132470698359DF6981E02FF0E0EE0FFF1FE4511B
S1132480FE4FA591B4919FB7F8948C91611103C04C
S11324901095812301C0812B8C939FBF0F90DF91F6
S11324A0CF911F910F910895FC01818D228D90E0B1
S11324B0805C9F4F821B91098F7399270895FC01BB
S11324C0918D828D981731F0828DE80FF11D858DE5
S11324D090E008958FEF9FEF0895FC01918D828D18
S11324E0981761F0828DDF01A80FB11D5D968C9164
S11324F0928D9F5F9F73928F90E008958FEF9FEF6F
S11325000895FC01848DDF01A80FB11DA35ABF4FAC
S11325102C91848D90E001968F739927848FA689DE
S1132520B7892C93A089B1898C9180648C93938D05
S1132530848D981306C00288F389E02D80818F7DF5
S113254080830895CF93DF93EC01888D8823C1F0B5
S1132550EA89FB89808185FD05C0A889B9898C91A8
S113256086FD0EC00FB607FCF5CF808185FFF2CF44
S1132570A889B9898C9185FFEDCFCE01C2DFE8CF60
S1132580DF91CF910895CF92DF92FF920F931F9323
S1132590CF93DF931F92CDB7DEB76C01DC015B965E
S11325A09C915B975C968C915C97981307C05096AE
S11325B0ED91FC915197808185FD31C0F601038D29
S11325C010E00F5F1F4F0F731127F02EF601848D5B
S11325D0F81210C00FB607FCF9CFD6015096ED9152
S11325E0FC915197808185FFF1CFC601698389DF12
S11325F06981ECCF838DE80FF11DE35AFF4F6083AF
S1132600D6015B960C935B975296ED91FC91539790
S113261080818062808381E058968C930DC0D601BE
S11326205696ED91FC91579760835096ED91FC91ED
S1132630519780818064808381E090E00F90DF91E6
S1132640CF911F910F91FF90DF90CF900895BF928B
S1132650CF92DF92EF92FF92CF93DF93EC016A0166
S11326607B01B22EE889F98982E08083411581EEED
S113267058076105710599F060E079E08DE390E019
S1132680A701960137D121503109410951095695C5
S1132690479537952795211580E1380790F0E8890B
S11326A0F989108260E874E88EE190E0A701960150
S11326B021D1215031094109510956954795379542
S11326C02795EC85FD853083EE85FF852083188E64
S11326D0EC89FD89B082EA89FB89808180618083ED
S11326E0EA89FB89808188608083EA89FB8980810B
S11326F080688083EA89FB8980818F7D8083DF9174
S1132700CF91FF90EF90DF90CF90BF9008951F92EC
S11327100F920FB60F9211240BB60F922F938F9333
S11327209F93EF93FF93E0919C0DF0919D0D808119
S1132730E091A20DF091A30D82FD12C090818091D1
S1132740A50D8F5F8F732091A60D821751F0E09134
S1132750A50DF0E0E457F24F958F8093A50D01C0CD
S11327608081FF91EF919F918F912F910F900BBEDC
S11327700F900FBE0F901F9018951F920F920FB6D7
S11327800F9211240BB60F922F933F934F935F93A5
S11327906F937F938F939F93AF93BF93EF93FF9325
S11327A08CE89DE0AEDEFF91EF91BF91AF919F91D8
S11327B08F917F916F915F914F913F912F910F90E6
S11327C00BBE0F900FBE0F901F90189510928F0D97
S11327D010928E0D88EE93E0A0E0B0E08093900D0F
S11327E09093910DA093920DB093930D87E892E08E
S11327F090938D0D80938C0D85ED90E09093990DC1
S11328008093980D84ED90E090939B0D80939A0DA6
S113281080ED90E090939D0D80939C0D81ED90E070
S113282090939F0D80939E0D82ED90E09093A10D67
S11328308093A00D86ED90E09093A30D8093A20D5C
S11328401092A50D1092A60D1092A70D1092A80D2E
S113285008957CC0CF92DF92EF92FF920F931F9363
S1132860CF93DF936C017A01EB01E60EF71E00E0D3
S113287010E0CE15DF0561F06991D601ED91FC9170
S11328800190F081E02DC6011995080F191FF1CFB1
S1132890C801DF91CF911F910F91FF90EF90DF90CE
S11328A0CF9008950895AA1BBB1B51E107C0AA1F2E
S11328B0BB1FA617B70710F0A61BB70B881F991FDD
S11328C05A95A9F780959095BC01CD01089597FB81
S11328D0072E16F4009406D077FD08D0E4DF07FC39
S11328E005D03EF4909581959F4F0895709561951C
S11328F07F4F0895A1E21A2EAA1BBB1BFD010DC038
S1132900AA1FBB1FEE1FFF1FA217B307E407F5079B
S113291020F0A21BB30BE40BF50B661F771F881F77
S1132920991F1A9469F760957095809590959B010D
S1132930AC01BD01CF010895EE0FFF1F0590F49186
S1132940E02D19940790F691E02D1994CF93DF931D
S11329508230910510F482E090E0E0912B0EF0912A
S11329602C0E20E030E0A0E0B0E0309739F1408157
S1132970518148175907B8F04817590771F48281F3
S11329809381109729F013969C938E9312972CC0E1
S113299090932C0E80932B0E27C02115310531F016
S11329A04217530718F0A901DB0101C0EF019A0196
S11329B0BD01DF010280F381E02DD7CF2115310560
S11329C0F9F0281B390B2430310580F48A819B816E
S11329D06115710521F0FB019383828304C09093F8
S11329E02C0E80932B0EFE01329644C0FE01E20FA2
S11329F0F31F8193919322503109398328833AC07C
S1132A002091290E30912A0E232B41F420910202A9
S1132A103091030230932A0E2093290E2091000254
S1132A20309101022115310541F42DB73EB7409193
S1132A30040250910502241B350BE091290EF091FC
S1132A402A0EE217F307A0F42E1B3F0B28173907B1
S1132A5078F0AC014E5F5F4F2417350748F04E0FF6
S1132A605F1F50932A0E4093290E8193919302C0C5
S1132A70E0E0F0E0CF01DF91CF910895CF93DF93B1
S1132A80009709F487C0FC01329713821282C09127
S1132A902B0ED0912C0E209781F420813181280FA8
S1132AA0391F8091290E90912A0E8217930779F588
S1132AB0F0932A0EE093290E6DC0DE0120E030E091
S1132AC0AE17BF0750F412964D915C9113979D0178
S1132AD04115510509F1DA01F3CFB383A283408193
S1132AE05181840F951F8A179B0771F48D919C91D6
S1132AF01197840F951F02969183808312968D916E
S1132B009C911397938382832115310529F4F093C3
S1132B102C0EE0932B0E3EC0D9011396FC93EE933A
S1132B2012974D915D91A40FB51FEA17FB0779F435
S1132B3080819181840F951F0296D90111969C93EF
S1132B408E938281938113969C938E931297E0E0E7
S1132B50F0E08A819B81009719F0FE01EC01F9CF26
S1132B60CE01029628813981820F931F2091290E6C
S1132B7030912A0E2817390769F4309729F41092F6
S1132B802C0E10922B0E02C013821282D0932A0EA6
S1132B90C093290EDF91CF910895DC0101C06D939C
S1132BA041505040E0F70895FB01DC010D900020F6
S1132BB0E9F7119701900D920020E1F70895FB01C8
S1132BC0DC018D91019080190110D9F3990B0895BE
S1132BD0FB01DC0101900D920020E1F70895F894C7
S1052BE0FFCF21
S1132BE200002D0E2000100011000101FFFFFFFF65
S1132BF2FF4A4B4C4D4A4A4A4A4A4B4B4B4B4B4C6D
S1132C024C4C4C4C4D4D4D4D4D01FF00E7E7E7E771
S1132C12E7E7E7E7E7E72020000000000141542B43
S1132C2242415544340041542B50494E31313131E3
S1132C32004F4B39363030004F4B7365746E616D03
S1132C4265004F4B73657450494E0041542B4E41FD
S1132C524D4500526F6F6D6261426C7565746F6FA2
S1132C6274680000000000C3122A1454126D125F2B
S1072C7212A2120094
S9030000FC
