:100000007AC0000099C0000097C0000095C00000B1
:1000100093C0000015C70000ACC300008DC00000F5
:100020008BC0000089C0000087C0000085C00000B0
:1000300083C0000081C000007FC000007DC00000C0
:100040007BC000000C947D0B77C0000075C00000E1
:1000500073C0000071C000006FC000006DC00000E0
:100060006BC000000C942D1067C0000065C000003C
:1000700063C0000061C000005FC000005DC0000000
:10008000A9C3000059C0000057C0000055C00000BF
:100090000C94B81051C000004FC000004DC00000CB
:1000A0004BC0000049C0000047C0000045C0000030
:1000B00043C0000041C000003FC000003DC0000040
:1000C0003BC0000039C0000037C0000035C0000050
:1000D00033C0000031C000002FC000002DC0000060
:1000E0002BC000001D10920ECA0E1E0F440F1D10D3
:1000F0006A0F800FA90F11241FBECFEFD1E2DEBF20
:10010000CDBF00E00CBF12E0A0E0B2E0EEE2F2E210
:1001100000E00BBF02C007900D92A233B107D9F7E0
:100120002DE0A2E3B2E001C01D92AB31B207E1F7CE
:100130000E94F10D0C94151163CFCF93DF931F92A2
:100140001F92CDB7DEB709E312E0BE016F5F7F4FAC
:1001500080916802909169020E94CD0D8981F80119
:100160008083F3CFD2E0C1E03DD7813019F4C09352
:10017000320205C037D7823011F4D09332020E9488
:100180007A0DF2CF36D781E092E08DD5109234020D
:1001900010923302249A259A269A2C982D982E98FC
:1001A0003D9A3C9A3B9A459844984398089595B156
:1001B00080E1892785B960E070E080916A029091C2
:1001C0006B020C94DF0D0895DF92EF92FF920F9374
:1001D0001F93CF93DF93ABD3082F10E0C6E0D2E09C
:1001E0000F2EFAE0EF2EF2E0FF2EF02D6894DD24C2
:1001F000D6F8299130E020173107A1F4E0910002F0
:10020000F0E0EA5FFD4F808190E08017910751F0A8
:1002100085B18D2585B9B8018091680290916902F8
:100220000E94DF0DCE15DF0521F7DF91CF911F91E1
:100230000F91FF90EF90DF9008950F931F93CF934E
:10024000DF93EC010D811E8183E80E946A109B857B
:10025000911109C08C85813031F460E070E88FE045
:1002600090E0E2D766C090913202911151C0202FE8
:1002700030E0A901440F551F440F551F240F351FAF
:10028000232F330F330B2250310988E2829FB001B4
:10029000839F700D1124812F90E09C01220F331F4A
:1002A000220F331F820F931F892F990F990B0297EB
:1002B0004AEF489F9001499F300D1124109235025A
:1002C0006115710589F42115310531F460E070E89C
:1002D00080E090E0A9D72DC060E070E888279927DA
:1002E000821B930BA1D725C02115310559F4772323
:1002F0001CF061E070E002C06FEF7FEF8AEF90E0EA
:1003000093D717C088279927821B930B8DD711C0CD
:1003100081E08093320280913502843010F0109297
:1003200032028F5F8093350261E070E08AEF90E0E7
:100330007BD7809167028F5F80936702853029F4B5
:1003400080913602C8D210926702DF91CF911F913F
:100350000F910895CF93DF93CDB7DEB7A2970FB675
:10036000F894DEBF0FBECDBF1A8281E089838091F1
:100370003702811133C049E063E5CE0101966BD7A6
:1003800042E16AE5CE01019666D749E069E5CE0112
:10039000019661D749E069E5CE0101965CD749E055
:1003A00068E5CE01019657D749E066E5CE01019692
:1003B00052D749E064E5CE0101964DD749E068E5A2
:1003C000CE01019648D749E068E5CE01019643D7B2
:1003D00049E064E5CE0101963ED750C049E069E5A9
:1003E000CE01019638D749E061E5CE01019633D7B9
:1003F00049E063E5CE0101962ED749E069E5CE01DB
:10040000019629D749E061E5CE01019624D749E05C
:1004100063E5CE0101961FD749E069E5CE0101965B
:100420001AD749E061E5CE01019615D749E063E5A9
:10043000CE01019610D749E064E5CE0101960BD7B5
:1004400049E068E5CE01019606D749E063E5CE01B3
:10045000019601D749E064E5CE010196FCD649E05A
:1004600063E5CE010196F7D649E06BE5CE01019632
:10047000F2D649E068E5CE010196EDD6CE010196AF
:1004800001D7A2960FB6F894DEBF0FBECDBFDF91A5
:10049000CF910895CF93DF93A7E3B2E02C912093FF
:1004A0003A02E8E3F2E0308130933B02EC013B8515
:1004B0003C938C858083231729F04598449A1092A9
:1004C000340237C0222319F02130B9F032C08091B4
:1004D0003402811106C03EDF81E008D781E08093BD
:1004E00034024598449A80913802811102C0439A9F
:1004F00020C08130F1F443981CC0809133028111F7
:1005000010C028DF81E0F2D681E0809333021092A0
:1005100034024498459A8091380281110AC0439A66
:1005200008C0109234024498459A8091380288237A
:10053000B1F3DF91CF91089595B180E2892785B914
:10054000109247028091000290E0DC01AA0FBB1FCD
:10055000AA0FBB1FA80FB91FA65FBD4FEAE4F2E0C8
:100560008FE492E02D912193E817F907D9F7809154
:100570003602809354028091370280935502809115
:100580003802809356028091390291E0811101C0B6
:1005900090E090935702809358021092390261E0E4
:1005A00087E492E0BFC30895CF93DF93CDB7DEB762
:1005B000A2970FB6F894DEBF0FBECDBFBE016F5D30
:1005C0007F4F80916A0290916B020E94CD0DCE0107
:1005D000019601D4182F8DEF810F823048F4898164
:1005E000811106C0CE01049628DECE01049652DFAA
:1005F000133069F3A1DFE2CFEAE0F1E080818460AB
:100600008083EBE0F1E080818B7F80832FEF89E6B0
:1006100098E1215080409040E1F700C000008081C7
:10062000846080832FEF89E698E1215080409040DC
:10063000E1F700C000000895FC01A0910002B0E0C5
:10064000AA5FBD4F8C918083118212821382148223
:1006500015821782168211861086138612861586D9
:10066000148617861686108A08950F931F93C4DF89
:1006700086E392E0E1DF0ED243D08091000290E069
:10068000BC01660F771F660F771F860F971FBC018F
:10069000665F7D4F41E080E07CD263E080E018D36C
:1006A0000E94BF0D90936B0280936A020E94BF0D5F
:1006B000909369028093680260E070E082EC90E0C1
:1006C0000E949C0D60E070E084ED92E00E949F0D1E
:1006D00060E070E08DE990E00E949F0D08EE13E06D
:1006E0002CE330E040E550E060E070E082EB90E029
:1006F0000E94A20DF8D780E090E01F910F9108951D
:10070000EAE0F1E0808188628083A0E2B1E01C929F
:10071000E1E2F1E010828C9183608C9380818861AA
:1007200080838C91877F8C9380818160808385EA30
:1007300091E0909329018093280182ED90E09093BD
:100740002D0180932C0110929000E1E9F0E01082DD
:10075000808181608083E1E7F0E080818D7F80830C
:100760006D98EAE6F0E080818C608083ED9AE59AEE
:1007700008951F920F920FB60F9211240BB60F928D
:100780008F939F93EF93FF9380917002811117C015
:1007900081E08093700210926E0210926D02C19AF5
:1007A00080919400909195008052914D9093990082
:1007B00080939800E1E7F0E0808182608083FF9180
:1007C000EF919F918F910F900BBE0F900FBE0F90E6
:1007D0001F9018951F920F920FB60F9211240BB60F
:1007E0000F922F933F934F935F936F937F938F93CA
:1007F0009F93AF93BF93EF93FF93809170028823F1
:1008000081F165990EC030916E0220916D0281E0F8
:1008100090E002C0880F991F3A95E2F7822B8093EF
:100820006D0280916E028F5F80936E02E8E9F0E0C6
:1008300080819181805C904E9183808380916E0253
:10084000883088F010927002E1E7F0E080818D7FBF
:100850008083C19AE59A80916D0280936C02B4DC2A
:1008600002C080916F02FF91EF91BF91AF919F9174
:100870008F917F916F915F914F913F912F910F9049
:100880000BBE0F900FBE0F901F901895E59AED9A32
:100890000895ED98E1E7F0E080818D7F8083C19A33
:1008A000109270020895E0E2F1E080818860808318
:1008B0008FEC97E00197F1F700C000000895E0E2A7
:1008C000F1E08081877F80838FEC97E00197F1F7DB
:1008D00000C000000895FF920F931F93CF93DF9302
:1008E000082FFFB6F894D5DFE0E2F1E08081886060
:1008F0008083D9DFE4DFC0E0D0E010E098010C2E67
:1009000002C0359527950A94E2F720FF02C0CBDF9D
:1009100001C0D5DF2196C830D10581F7D0DFB6DF21
:10092000FFBEDF91CF911F910F91FF9008958091AD
:100930006C020895CF93DF93C2E0D1E088818F7B72
:1009400088838FEF30D3988190649883DF91CF9123
:100950000895EF92FF920F931F93CF93DF938B0134
:10096000E42EC2E0D1E098819F7B98838F718062F2
:100970001AD3F82E6E2DC80107D38881806488832E
:100980008F2DDF91CF911F910F91FF90EF900895E0
:1009900080912B02882329F045E061E272E08AE031
:1009A000D8CF0895FF920F931F93CF93DF938B01BE
:1009B000EA01F22EE2E0F1E090819F7B9083F3D296
:1009C000FF2051F0209721F46F2DC801DDD204C023
:1009D0004F2DBE01C801C5D2E2E0F1E08081806404
:1009E0008083DF91CF911F910F91FF900895EF9237
:1009F000FF920F931F93CF93DF93062FF72E142FA1
:100A0000442349F0362FE62FF72F2FEF21939E2F07
:100A1000931B9117D8F3C2E0D1E098819F7B988314
:100A20008F71C1D2E82E412F602F7F2D80E090E0A2
:100A300098D28881806488838E2DDF91CF911F9119
:100A40000F91FF90EF900895CF93DF931F92CDB752
:100A5000DEB741E0BE016F5F7F4F80E0C8DF898174
:100A600080FD14C08160898341E0BE016F5F7F4FCC
:100A700080E06FDF83E091E00197F1F700C00000B4
:100A800083E091E00197F1F700C000000F90DF9143
:100A9000CF9108951F93CF93DF931F92CDB7DEB709
:100AA00010927102E1E0F1E0808188618083A2E030
:100AB000B1E08C918F7E8C938C91877F8C938C91FD
:100AC0008F7D8C938081806280838081806480832D
:100AD0006C98EAE6F0E080818260808380818E7F7E
:100AE0008083EC9AE49A8FED9BEA0197F1F700C0BE
:100AF00000002AD283E0898341E0BE016F5F7F4F0F
:100B000028DF85E1898341E0BE016F5F7F4F84E08C
:100B100020DF10E7198341E0BE016F5F7F4F85E062
:100B200018DF89E0898341E0BE016F5F7F4F86E077
:100B300010DF8FE0898341E0BE016F5F7F4F80E06F
:100B400008DF198341E0BE016F5F7F4F87E001DF5F
:100B500020E040E050E060E070E081EE23DF20E044
:100B600040E050E060E070E082EE1CDF8FE39FE148
:100B70000197F1F700C00000E2E0F1E080818062BF
:100B800080838081806180830F90DF91CF911F915E
:100B90000895CF92DF92EF92FF920F931F93CF931E
:100BA000DF931F92CDB7DEB7D82EC42E85E08D150A
:100BB00008F46FC0D11011C0FB0180818093210225
:100BC000818180932202828180932302838180939A
:100BD000240284818093250203C0F1E0FD1510F00A
:100BE00045E001C041E08AE08D0DB3DE41E0BE0189
:100BF0006F5F7F4F81E0FBDEED2CF12C01E010E018
:100C00000D2C02C0000F111F0A94E2F78981802B7E
:100C1000898341E0BE016F5F7F4F81E09ADEC110A2
:100C200008C01FC041E0BE016F5F7F4F82E091DED0
:100C300030C080E2898341E0BE016F5F7F4F81E178
:100C40008D0D87DE8981F701E55DFD4F808341E0F1
:100C5000BE016F5F7F4F82E0CADE8981082B098366
:100C6000E1CF198241E0BE016F5F7F4F81E18D0DC1
:100C700070DE8981F701E55DFD4F808341E0BE01B3
:100C80006F5F7F4F82E0B3DE00958981082309837F
:100C9000C9CF0F90DF91CF911F910F91FF90EF90EF
:100CA000DF90CF900895FC0180818093260281819E
:100CB0008093270282818093280283818093290276
:100CC000848180932A0245E0BF0180E142CE0895ED
:100CD0000F931F93CF93DF931F92CDB7DEB7082FEB
:100CE000162F6430C8F48230B8F441E0BE016F5F63
:100CF0007F4F86E07CDE110F8981866018230023F8
:100D000019F01860198302C0177F198341E0BE01F2
:100D10006F5F7F4F86E01DDE0F90DF91CF911F91B7
:100D20000F910895DF92EF92FF920F931F93CF934D
:100D3000DF931F92CDB7DEB77C01D62E81E0809382
:100D40007102E2E0F1E080818F7D808341E0BE01AD
:100D50006F5F7F4F80E04BDE898180FF14C08E7F04
:100D6000898341E0BE016F5F7F4F80E0F2DD83E069
:100D700091E00197F1F700C00000E3E0F1E0319766
:100D8000F1F700C0000045E066E272E08AE0E1DDD4
:100D900002E011E0F80180818860808320E240E079
:100DA00050E0B70180EAFEDDF80180818062808337
:100DB000D11007C0809171028111FCCF80911E0279
:100DC00001C081E00F90DF91CF911F910F91FF90B3
:100DD000EF90DF900895CF93DF93EC0110927102B2
:100DE000E2E0F1E080818F7D8083A4DD8E70282F8A
:100DF00030E035952795F901FF27DF01A55DBD4F4F
:100E00008C91813270F4273071F0FD012081AE01A8
:100E1000BE0181E6C7DD8EDD8E708E3031F083E05D
:100E200005C080E003C082E001C084E0E2E0F1E0C0
:100E300090819062908310927102DF91CF9108951A
:100E40001F920F920FB60F9211240BB60F922F9391
:100E50003F934F935F936F937F938F939F93AF9342
:100E6000BF93EF93FF93CF93DF931F92CDB7DEB77E
:100E7000E2E0F1E080818F7E808380818F7D8083BE
:100E800059DD898386FF03C08E70869590D989814C
:100E900085FF1BC0109271027BDDD6DD80911F02A1
:100EA00090912002880F991F9093200280931F0237
:100EB00080911F0290912002816090932002809384
:100EC0001F0281E080931E0219C084FF17C020E03A
:100ED00040E050E060E070E081EE64DD109271026D
:100EE00057DDB2DD80911F0290912002880F991F7B
:100EF0009093200280931F0210921E0280E7898344
:100F000041E0BE016F5F7F4F87E023DDE2E0F1E06B
:100F10008081806180838081806280830F90DF91F7
:100F2000CF91FF91EF91BF91AF919F918F917F9161
:100F30006F915F914F913F912F910F900BBE0F904A
:100F40000FBE0F901F90189584B1807F84B984B133
:100F5000876084B9289A80E58CBD81E08DBD289892
:100F60000895442381F0282FA62FB72FE82FF92FBB
:100F700081918EBD0DB407FEFDCF8EB58D938E2F62
:100F8000821B8417A8F30895662361F0282FE82FA9
:100F9000F92F81918EBD0DB407FEFDCF8E2F821BE0
:100FA0008617B8F308958EBD0DB407FEFDCF8EB53C
:100FB0000895CF93DF93CDB7DEB7A6970FB6F89419
:100FC000DEBF0FBECDBFBE016F5F7F4F81E04DD052
:100FD0008981A6960FB6F894DEBF0FBECDBFDF9114
:100FE000CF910895E6DF91E0811101C090E0892F53
:100FF0000895519A599883E00E94721080E80E94E7
:101000006A102FEF89EF90E0215080409040E1F787
:1010100000C0000081E80E946A1087E00E946A1008
:101020002FEF81EE94E0215080409040E1F700C026
:10103000000080E00E94721080E80E946A102FEF8A
:1010400089EF90E0215080409040E1F700C000001F
:1010500083E80E946A102FEF89EF90E021508040D2
:101060009040E1F700C0000008951F93CF93DF93F5
:10107000182FEB018EE80E946A10812F0E946A10DF
:10108000123009F442C018F4113041F0C8C01330D6
:1010900009F45EC01A3609F492C0C1C00E94B210B1
:1010A0008A30E1F780E090E00E94DE10888381E0E2
:1010B00090E00E94DE10898382E090E00E94DE10C2
:1010C0008A8383E090E00E94DE108B8384E090E0CE
:1010D0000E94DE108C8385E090E00E94DE108D83FC
:1010E00086E090E00E94DE108E8387E090E00E9410
:1010F000DE108F8388E090E00E94DE10888789E010
:1011000090E00E94DE1089878AC00E94B21086306B
:10111000E1F780E090E00E94DE108A8781E090E0B5
:101120000E94DE108B8782E090E00E94DE108D87A7
:1011300083E090E00E94DE108C8784E090E00E94C3
:10114000DE108F8785E090E00E94DE108E8767C0FA
:101150000E94B2108A30E1F780E090E00E94DE1039
:10116000888B81E090E00E94DE108A8B82E090E024
:101170000E94DE10898B83E090E00E94DE108C8B51
:1011800084E090E00E94DE108B8B85E090E00E946E
:10119000DE108D8B86E090E00E94DE108F8B87E062
:1011A00090E00E94DE108E8B88E090E00E94DE10BE
:1011B000898F89E090E00E94DE10888F30C080E047
:1011C00090E0FCD78B8F81E090E0F8D78A8F82E0A7
:1011D00090E0F4D78D8F83E090E0F0D78C8F84E09F
:1011E00090E0ECD78F8F85E090E0E8D78E8F86E097
:1011F00090E0E4D789A387E090E0E0D788A388E077
:1012000090E0DCD78BA389E090E0D8D78AA38AE06E
:1012100090E0D4D78DA38BE090E0D0D78CA3A5D756
:10122000DF91CF911F9108950F931F93CF93DF9379
:10123000182F092FC62FD72F89E84CD7802F4AD7D0
:10124000812F48D78D2F46D78C2F44D7DF91CF9150
:101250001F910F910895FC015181503190F4252F79
:1012600030E0F9013196EE0FFF1FE80FF91F6083A0
:10127000F901EE0FFF1FE80FF91F43835F5FFC01C9
:1012800051830895FF920F931F93CF93DF938C01A7
:101290008CE820D7F80180811DD7F80181811AD709
:1012A000F80181818823E1F0C0E0D0E0F12CFE015B
:1012B0003196EE0FFF1FE00FF11F80810BD7CC0F8F
:1012C000DD1FC00FD11F8B8105D7F394CF2DDD27F4
:1012D000C7FDD095F801818190E0C817D9073CF38C
:1012E000DF91CF911F910F91FF900895CF93C82F59
:1012F0008DE8F0D68C2FEED6CF910895FFCFFF93D7
:10130000FCB7FF93FFB7F894FF93EF93DF93CF936E
:10131000BF93AF939F938F937F936F935F934F93FD
:101320003F932F931F930F93FF92EF92DF92CF92F1
:10133000BF92AF929F928F927F926F925F924F92E5
:101340003F922F921F920F928DB79EB790938C0C65
:1013500080938B0CE091910CF091920CF39580812D
:1013600091819EBF8DBF0F901F902F903F904F9007
:101370005F906F907F908F909F90AF90BF90CF9035
:10138000DF90EF90FF900F911F912F913F914F9120
:101390005F916F917F918F919F91AF91BF91CF910D
:1013A000DF91EF91FF91FFBFFF91FCBFFF91089587
:1013B000FF93FCB7FF93FFB7F894FF93EF93DF938E
:1013C000CF93BF93AF939F938F937F936F935F93CD
:1013D0004F933F932F931F930F93FF92EF92DF92C0
:1013E000CF92BF92AF929F928F927F926F925F92B5
:1013F0004F923F922F921F920F92E091910CF09199
:10140000920C8DB79EB7F3959183808380918B0C5E
:1014100090918C0C9EBF8DBF0F901F902F903F908E
:101420004F905F906F907F908F909F90AF90BF9004
:10143000CF90DF90EF90FF900F911F912F913F91F0
:101440004F915F916F917F918F919F91AF91BF91DC
:10145000CF91DF91EF91FF91FFBFFF91FCBFFF9113
:1014600008950F931F93CF93DF93FC01A081B18167
:101470001097C1F0FB010681178120917402309111
:101480007502E0917402F0917502A801421B530BA2
:1014900016962D913C9117972E1B3F0B4217530721
:1014A00078F524C07183608373836283FB011186A6
:1014B00010863AC02091740230917502C091740276
:1014C000D0917502A801421B530B268137812C1B3A
:1014D0003D0B4217530710F0DF0112C0109729F09F
:1014E00019967C936E93189705C0DF01FC017183F8
:1014F0006083FD01DB011996FC93EE93189714C0ED
:101500001896ED91FC9119973097A1F6DC0112968F
:10151000ED91FC9113977187608713967C936E937E
:101520001297FB0111861086DF91CF911F910F91C9
:101530000895FC0180819181892B29F47183608356
:10154000738362830895A281B381A65FBE4F6D93BA
:101550007C93738362830895FC018081918100975D
:1015600089F0228133818217930729F41382128232
:10157000118210820895DC01A65FBE4F2D913C912F
:101580003183208308958091D7029091D802892BCE
:1015900009F49AC08091F502813009F09EC08091D3
:1015A000D3029091D402892B09F097C090C087EDA7
:1015B00092E0D2DF02C08FE79BE0FC01E752FF4FD1
:1015C000108220E87E96208333961082E1EFF2E0CD
:1015D00020813181DC01A550BF4F3C9320813181B6
:1015E000FC01E450FF4F20833196108223E73BE05B
:1015F000319630833196208331969C0129523F4F9A
:101600003183208322E0359620832091F3023091AC
:10161000F402319631832083E5EFF2E020811796C2
:101620002C932081213031F0223009F446C0211161
:1016300051C03CC0E091D302F091D4023097B1F098
:101640002091D5023091D602E217F30749F41092A7
:10165000D6021092D5021092D4021092D30206C084
:10166000208531853093D4022093D3022091ED025E
:101670003091EE02378326832091E9023091EA020D
:10168000338322832091EB023091EC023583248353
:1016900091838083DC01AD5FBE4FED93FC93BF016E
:1016A0008BEC92E0DEDE80E090E00895BC0187ECF8
:1016B00092E03FDF80E090E00895BC018FEC92E083
:1016C00038DF80E090E0089581E090E0089582E0C6
:1016D00090E0089580E090E008958091F5028F3FBA
:1016E00009F065CF68CFCF93CFB7F89483E08093AC
:1016F000F6025EDECFBFCF910895FF93FCB7FF9354
:10170000FFB7F894F068FF93EF93DF93CF93BF9305
:10171000AF939F938F937F936F935F934F933F9379
:101720002F931F930F93FF92EF92DF92CF92BF926E
:10173000AF929F928F927F926F925F924F923F9261
:101740002F921F920F92E091910CF091920C8DB715
:101750009EB7F3959183808380918B0C90918C0C34
:101760009EBF8DBF81E08093F602E8E8F0E08081C3
:101770009181805F984D9183808380918B0C9091B3
:101780008C0C9EBF8DBF0F901F902F903F904F905D
:101790005F906F907F908F909F90AF90BF90CF9011
:1017A000DF90EF90FF900F911F912F913F914F91FC
:1017B0005F916F917F918F919F91AF91BF91CF91E9
:1017C000DF91EF91FF91FFBFFF91FCBFFF91089563
:1017D000CF92DF92EF92FF920F931F93CF93DF93FD
:1017E000E1E8F0E0808182608083E4E2F4E024E8D4
:1017F0003CE01082CF01079696838583DF01129724
:101800001D921C92E45FFE4FE217F30791F71092CE
:101810008A0C1092890C10927E0B10927D0B109204
:10182000840C1092830C1092820CE7EFF2E025E119
:1018300033E017821682158214821382128211827B
:101840001082CF010A96918780878217930711F043
:10185000FC01EFCFE5E1F3E01182108210921E034C
:1018600010921D0310921C0310921B0310921A0376
:101870001092190310921803109217030F2EFFE114
:10188000CF2EF3E0DF2EF02DD092D802C092D702F7
:1018900083E79AE09093DA028093D90287EF92E08F
:1018A0009093D4028093D302F093D602E093D502B2
:1018B0001092CC021092CB021092CE021092CD0266
:1018C0001092D0021092CF021092D2021092D10246
:1018D0001092C8021092C7021092CA021092C90256
:1018E0000F2EF1EFEF2EF2E0FF2EF02D8EE799E0B4
:1018F000F7019183808305EF12E08FEFF801808379
:10190000C3EFD2E0198218823EDE85E393E0F7014F
:1019100091838083F80110821982188234DED0927C
:10192000920CC092910C81E08093240487EC92E0A9
:1019300013DEEFE6F0E08081826080838091840096
:1019400090918500805F984D9093890080938800E6
:1019500082E086BBDF91CF911F910F91FF90EF90B6
:10196000DF90CF900895F89480E884B98091310297
:10197000811104C0309131023F5F03C030913102C8
:10198000315040E864E62AE054E145B9862F7FE70C
:1019900098E3E1E071509040E040E1F700C00000C2
:1019A0008150A9F715B888E2FFE778E391E0F1509C
:1019B00070409040E1F700C000008150A9F7332348
:1019C00059F190E045B9822FEFE7F8E371E0E1507B
:1019D000F0407040E1F700C000008150A9F715B851
:1019E000822FEFE7F8E371E0E150F0407040E1F75B
:1019F00000C000008150A9F79F5F9313E3CF0CC094
:101A00009FE7E8E3F1E09150E040F040E1F700C0EB
:101A100000008150A9F7B9CF852FF2CFE091CB021A
:101A2000F091CC02309711F18091CD029091CE02CD
:101A3000E817F90779F0A085B185268137811696D8
:101A40008D919C9117972817390721F486E0809390
:101A5000310289DF209174023091750281E0468164
:101A600057814217530719F080E001C080E090E0F1
:101A700008958091E5029091E602019749F18091E5
:101A8000C7029091C802892B49F0E091910CF09126
:101A9000920CEE5FFE4F808181111DC0BFDF892B4C
:101AA00001F1E091910CF091920CEE5FFE4F80817C
:101AB0008230A4F416C0E091910CF091920CEE5F8C
:101AC000FE4F81E090E0208123309CF480E0089577
:101AD00080E090E0089581E090E0089581E090E05A
:101AE00008958091CF029091D002892B21F780E058
:101AF00090E00895CF93CFB7F89484E08093F602F6
:101B000057DCCFBFCF910895CF93CFB7F894909380
:101B1000F2028093F1027093F4026093F302409317
:101B2000F50282E08093F60243DC8091E30290911B
:101B3000E402CFBFCF91089540E0E6CF089542E0A0
:101B4000E3CF08950F931F934115510519F0241702
:101B5000350720F084E08093310205DF5093EA02DC
:101B60004093E9021093EE020093ED023093EC02F1
:101B70002093EB0241E0C8DF1F910F910895CF93AE
:101B8000CFB7F89486E08093F60212DC8091E102F0
:101B90009091E202CFBFCF910895CF93CFB7F89441
:101BA0009093E0028093DF027093DE026093DD0287
:101BB00087E08093F602FCDBCFBFCF910895CF93EF
:101BC000CFB7F8949093E0028093DF027093DC0229
:101BD0006093DB0288E08093F602EADBCFBFCF910F
:101BE0000895F6DD8091910C9091920C009721F46C
:101BF00088E080933102B7DEC7ECD2E0772473949B
:101C00000F2EFFECEF2EF2E0FF2EF02D0F2EFFE750
:101C10004F2EFBE05F2EF02D0F2EFBECAF2EF2E0EF
:101C2000BF2EF02D0F2EFDEC8F2EF2E09F2EF02D0B
:101C30006894662461F80F2EF1ED2F2EF2E03F2E0E
:101C4000F02D0F2EF4E8CF2ED12CF02DFC01EB5F00
:101C5000FE4F2081213009F0FAC18F579B4009F0D7
:101C600051C08091E5029091E602892B09F4EFC101
:101C700049C0CE0171DC9093920C8093910C3BC0D3
:101C8000CDDE892B41F1D501ED91FC91309791F09A
:101C9000D4018D919C911197E817F90731F41D92A9
:101CA0001C92D5011D921C9205C080859185D5019D
:101CB0008D939C93F093900CE0938F0C8081918195
:101CC0009093920C8093910C8481958190938E0CCB
:101CD00080938D0C10C0F70180819181892B39F0A0
:101CE000C7013ADC9093920C8093910C04C05092FF
:101CF000920C4092910CE091910CF091920CEB5F60
:101D0000FE4F70821092E6021092E502F8DA80919E
:101D1000F60290E08930910508F08BC1FC01EE5885
:101D2000FF4F69C280917402909175020196909361
:101D3000750280937402D6018D919C9190937302E9
:101D4000809372026091910C7091920CFB01EE5F96
:101D5000FE4F8081813081F480918D0C90918E0CAA
:101D6000019790938E0C80938D0C892B09F065C19F
:101D700085E080933102F7DD823009F05EC1FB011E
:101D8000EB5FFE4F8081813009F057C16082C7014F
:101D9000D0DB53C1F8DB9093E4028093E30280919F
:101DA000E3029091E402892BA1F563DE892B89F18E
:101DB0008091910C9091920CFC01EB5FFE4F608240
:101DC000339720812230D1F4F70120813181211510
:101DD000310559F4D1018D939C9391838083FC014B
:101DE000E65FFE4F1182108228C1FC01E65FFE4FC4
:101DF00031832083F701918380831FC1213009F053
:101E00001CC1FC01ED5FFE4F60817181C50129DBC2
:101E100014C18091E3029091E402019721F482E0E1
:101E200080933102A0DD8091E3029091E402029759
:101E300009F003C183E08093310295DD0091910C9C
:101E40001091920CFBE00F371F0709F4F6C0F80160
:101E5000EB5FFE4F108233978081813081F43196A1
:101E60000190F081E02D309751F011821082F8013D
:101E7000ED5FFE4F6081718183ED92E0F2DAB8018F
:101E800087ED92E056DBD9C06091910C7091920C75
:101E9000FB01EB5FFE4F608233978081813039F028
:101EA0008230A9F08111C9C0CE0143DBC6C0E091E8
:101EB0008F0CF091900C2681378182819381820F63
:101EC000931F97838683BF01C501CBDAB6C0C701D4
:101ED00030DBB3C0209176022A3070F438E0239FC3
:101EE000C001112489589D4F9093E2028093E10232
:101EF0002F5F20937602A1C089E08093310233DD09
:101F00008091DF029091E002009721F48AE08093B3
:101F1000310229DD0091910C1091920CF801EE5FD5
:101F2000FE4F2081213021F48BE0809331021BDDB4
:101F3000F801E85FFE4F2091DD023091DE0231832F
:101F40002083B801F6DAF801EB5FFE4F83E080836F
:101F500074C00091DF021091E0020115110571F5C6
:101F60008AE080933102FFDCC801F6DAFC01E85F09
:101F7000FE4F0190F081E02D2091DB023091DC02D8
:101F800031832083FC01EB5FFE4F60823397208119
:101F9000213041F0223051F021110CC0BC01CE01A2
:101FA000C8DA0CC08CE080933102DDDCBC01C701D3
:101FB000C0DA04C08DE080933102D5DCD8018D9168
:101FC0009C91892B89F655DD892BB9F16091910C93
:101FD0007091920CFB01EB5FFE4F60823397808122
:101FE000813039F0823061F0811127C0CE01A1DA51
:101FF00024C060918F0C7091900CC50132DA1DC025
:10200000F70180819181009759F4D1016D937C9300
:1020100071836083FB01E65FFE4F118210820DC069
:10202000FB01E65FFE4F91838083F701718360833C
:1020300004C082E08093310296DC1092F602809117
:10204000910C9091920C009709F000CED1CD88812F
:102050009981892B09F00DCE13CE1F920F920FB6E6
:102060000F9211240BB60F925F936F937F938F9310
:102070009F93AF93BF93EF93FF93E0ECF0E08081E9
:102080008823ECF7E091F80CF091F90C8091C600F0
:10209000EC56F34F80838091F80C9091F90C0196E7
:1020A00064E670E095D09093F90C8093F80C81E091
:1020B0008093930CFF91EF91BF91AF919F918F917E
:1020C0007F916F915F910F900BBE0F900FBE0F909D
:1020D0001F901895E8ECF0E0908195FFFDCF80937C
:1020E000CE0008952FB7F894E5E6F0E090819E7F4A
:1020F0009083813069F028F0823089F08330B1F02C
:102100001CC083E390E09093CD008093CC001BC073
:1021100089E190E09093CD008093CC0014C080E1E1
:1021200090E09093CD008093CC000DC088E090E0CB
:102130009093CD008093CC0006C080E190E0909316
:10214000CD008093CC00E8ECF0E080EC808388E95F
:102150008093C9008EE08093CA0080818D7F808348
:102160002FBF08958091FA0C08951092FA0C0895EB
:102170001F920F920FB60F9211240BB60F928F93EE
:102180009F93EF93FF93E091FA0CF0E08091CE00E3
:10219000E550F34F80838091FA0C90E001968F71A7
:1021A00090788093FA0CFF91EF919F918F910F900F
:1021B0000BBE0F900FBE0F901F90189580329105A7
:1021C0002CF4FC01E550F34F8081089580E00895E0
:1021D00097FB072E16F4009406D077FD08D011D097
:1021E00007FC05D03EF4909581959F4F089570951A
:1021F00061957F4F0895EE0FFF1F0590F491E02D3C
:102200001994AA1BBB1B51E107C0AA1FBB1FA6172D
:10221000B70710F0A61BB70B881F991F5A95A9F78F
:0E22200080959095BC01CD010895F894FFCFF4
:10222E0001FFFFFFFFFF4A4B4C4D4A4A4A4A4A4BB9
:10223E004B4B4B4B4C4C4C4C4C4D4D4D4D4D01FF67
:10224E0000E7E7E7E7E7E7E7E7E7E720200000003A
:02225E0000017D
:00000001FF
